:020000040800F2
:1000000088E50020E9300008650300086703000860
:100010006B0300086F030008730300080000000072
:10002000000000000000000000000000770300084E
:100030007903000800000000DF660008A52800081A
:100040000331000803310008033100088F1D000848
:1000500003310008033100080331000803310008B0
:1000600003310008033100080331000803310008A0
:1000700003310008033100087B0300080331000846
:100080000331000803310008033100080331000880
:100090000331000803310008033100080331000870
:1000A0000331000803310008033100080331000860
:1000B0000331000803310008033100080331000850
:1000C0000331000803310008033100080331000840
:1000D0000331000803310008C1290008033100087A
:1000E0000331000803310008033100080331000820
:1000F0000331000803310008033100080331000810
:1001000003310008033100080331000803310008FF
:1001100003310008033100080331000803310008EF
:1001200003310008033100080331000803310008DF
:1001300000F002F800F075F80AA090E8000C824484
:100140008344AAF10107DA4501D100F06AF8AFF261
:10015000090EBAE80F0013F0010F18BFFB1A43F0A5
:10016000010318474CAC03006CAC03000A444FF089
:10017000000C10F8013B13F0070408BF10F8014B06
:100180001D1108BF10F8015B641E05D010F8016B4B
:10019000641E01F8016BF9D113F0080F1EBF10F8AF
:1001A000014BAD1C0C1B09D16D1E58BF01F801CBD2
:1001B000FAD505E014F8016B01F8016B6D1EF9D555
:1001C0009142D6D37047000000230024002500266A
:1001D000103A28BF78C1FBD8520728BF30C148BFAA
:1001E0000B60704766290FF05A8664290DF0FC8475
:1001F00073290EF01E82002070471FB50FF0C3FD5B
:100200000EF082FA0400002000210FF011F8401CCB
:100210006060002000210EF0F5FFE0601FBD10B50A
:1002200010BD0EF0DBFB1146FFF7E7FF00F072F8A0
:100230000EF007FC03B4FFF7F2FF03BC02F0B2FBC1
:1002400010B53CA40DF046FB00B914E020460DF0BB
:1002500092FB10B90DF0EAFB0DE039A00DF018FC8F
:1002600010B90DF0E3FB06E00DF0E0FB00B902E091
:100270000DF034FC00BF10BD10B502F08DFB02F094
:1002800019FB4FF4165002F0B4FB01F0C1FA00F074
:1002900052FA4FF4E13002F009FC06F06AFA06F077
:1002A0001FFB01F015FD2A490122086829A107F06A
:1002B000C4FE27490122486827A107F0BEFE0BF0C3
:1002C0007DF90BF045FB10BD0EE002F057FDEB2869
:1002D00002D10BF051F900E000BF00BF0BF0B1F804
:1002E0000BF022F90DF0F1F9EFE770B504460025A7
:1002F00000BF06F0CDF905460623184A0021AFF2EB
:10030000370005F03AFD0A2005F0BFFF284606F049
:10031000C3F970BD10B5FFF7AFFF04F032FA0A233E
:100320000F4A0021AFF23D0005F027FD04F04EFB1F
:10033000002010BD2FD6C7C4DCB3D32E54585400B0
:1003400063646862737666646A68766600000000BB
:1003500058020020303A0000313A0000E408002042
:10036000E4040020704700BFFEE700BFFEE700BFC7
:10037000FEE700BFFEE77047704710B54FF400502E
:1003800004F0B4F818B14FF4005004F0C2F810BDF6
:1003900000210020674A126842F48032654B1A60DF
:1003A00000BF644A126802F40030491C10B9B1F56C
:1003B000A06FF6D15F4A126812F4003F01D001200D
:1003C00000E00020012842D15B4A126842F010028E
:1003D000594B1A601A46126822F003021A601A4634
:1003E000126842F002021A60524A5268514B5A6037
:1003F0001A4652685A601A46526842F480625A603D
:100400001A46526822F47C125A601A46526842F424
:10041000E8125A601A46126842F080721A6000BFF1
:10042000444A126812F0007FFAD0424A526822F021
:100430000302404B5A601A46526842F002025A6068
:1004400000BF3C4A526802F00C02082AF9D17047FA
:1004500010B5FFF79DFF10BD10B53648006840F09D
:100460000100344908600846406834490840314971
:10047000486008460068324908402E49086008462E
:10048000006820F4802008600846406820F4FE00E0
:1004900048604FF41F008860FFF7DAFF4FF00060FC
:1004A0002849086010BD10B5002100200022214B12
:1004B0005B6803F00C0121B1042906D0082928D17A
:1004C00007E0214B214C236027E01F4B1F4C23608A
:1004D00023E0184B5B6803F47010164B5B6803F461
:1004E0008032022303EB904022B9194B4343174C4F
:1004F00023600DE00F4B5B6813F4003F04D0144BF6
:100500004343124C236003E00F4B43430F4C2360E3
:1005100003E00D4B0D4C236000BF00BF054B5B6833
:10052000C3F303130B4CE15C084B1B68CB40074C37
:10053000236010BD00100240002002400000FFF8C0
:10054000FFFFF6FE08ED00E000127A000000002038
:1005500000093D000400002070B50546002405E0B8
:10056000601CC4B2C82C01DD002070BD02215D48B2
:1005700003F01CFD0028F3D029465A4803F0C3FCC1
:10058000002405E0601CC4B2C82C01DD0020ECE7AB
:100590000121544803F00AFD0028F3D0514803F02C
:1005A000B4FCC0B2E1E708B5012141F2040003F058
:1005B000CFF8E020ADF8000018208DF803000320EC
:1005C0008DF802006946484802F00EFEE0214648D8
:1005D00002F0B5FE0020454908804FF48270488043
:1005E000002088800220C8800120088140024881C4
:1005F000382088810020C88107200882394803F00C
:10060000A9FB0121374803F048FCFF20FFF7A4FFB6
:1006100008BD10B50446354884810146314803F0D1
:1006200099FB01212F4803F038FC10BD08B50121CA
:10063000042003F08DF84FF48050ADF80000102036
:100640008DF8030002208DF802006946264802F06A
:10065000CBFD0121042003F07BF84FF40060ADF8DE
:10066000000004208DF8030002208DF80200694686
:100670001D4802F0B9FD0121042003F069F84FF490
:100680008070ADF8000010208DF8030002208DF876
:1006900002006946144802F0A7FD0121082003F07A
:1006A00057F84FF40060ADF8000010208DF80300FB
:1006B00002208DF8020069460D4802F095FD0121E7
:1006C000082003F045F84FF48050ADF800001020EA
:1006D0008DF8030002208DF802006946044802F0FC
:1006E00083FD08BD0030014000080140E8080020FB
:1006F000000C014010B500240020D14908604FF0E3
:100700009000FFF729FF0020FFF726FF0020FFF7EA
:1007100023FF0020FFF720FFFF20FFF71DFF44EA23
:100720000024FF20FFF718FF04430120C549C1F84A
:100730009001204610BD08B50121042003F008F8FF
:100740001220ADF8000010208DF8030003208DF872
:1007500002006946BC4802F047FD1821BA4802F081
:10076000EEFDFFF720FF0820FFF753FFFFF7C2FF62
:10077000B649088008BD10B500240020B0490860C3
:100780004FF00500FFF7E8FEFF20FFF7E5FE044607
:100790000120AC49C1F89001204610BD10B50446B7
:1007A0000020A74908604FF00100FFF7D5FE204662
:1007B000FFF7D2FE0120A349C1F8900110BD10B58A
:1007C00000209F4908604FF00600FFF7C5FE01209A
:1007D0009C49C1F8900110BD10B5002098490860EF
:1007E0004FF00400FFF7B8FE01209649C1F89001D0
:1007F00010BD2DE9F04106460C46174600209049F1
:1008000008604FF00300FFF7A7FEC4F30740FFF7AF
:10081000A3FEC4F30720FFF79FFEE0B2FFF79CFEA4
:10082000002505E0FF20FFF797FE7055681C85B294
:10083000BD42F7DB012082490860BDE8F08110B5B8
:1008400000BFFFF798FF00F001000128F9D010BDAC
:100850002DE9F04106460C461746FFF7B0FF002091
:10086000774908604FF00200FFF776FEC4F30740B7
:10087000FFF772FEC4F30720FFF76EFEE0B2FFF74A
:100880006BFE002504E0705DFFF766FE681C85B214
:10089000BD42F8DB01206A490860FFF7D0FFBDE8E0
:1008A000F0812DE9F04107460E461446F0B2C0F53E
:1008B0008075AC4200DC254612E02A4631463846B7
:1008C000FFF7C6FFAC4200D10BE02F442E44601B63
:1008D00084B2B4F5807F02DD4FF4807500E02546D8
:1008E000EBE700BFBDE8F08110B504462403FFF735
:1008F00066FFFFF7A4FF0020514908604FF0200079
:10090000FFF72AFEC4F30740FFF726FEC4F30720D3
:10091000FFF722FEE0B2FFF71FFE01204949C1F8B0
:100920009001FFF78CFF10BD2DE9F04781460F467F
:1009300016464FEA1738C7F30B0ACAF58054A64289
:1009400000DC344644E04FEA08314FF4805240481E
:10095000FFF74FFF002508E00AEB05003C49085C63
:10096000FF2800D003E0681C85B2A542F4DB00BF7D
:10097000A54216DA4046FFF7B7FF002507E019F851
:10098000050005EB0A01324A5054681C85B2A542A5
:10099000F5DB4FEA08314FF480522D48FFF781FF15
:1009A00004E0224639464846FFF77BFFA64200D1C5
:1009B0000FE008F101084FF0000AA1442744301B62
:1009C00086B2B6F5805F02DD4FF4805400E0344615
:1009D000B9E700BFBDE8F08710B5FFF7F0FEFFF7FD
:1009E0002EFF0020164908604FF0C700FFF7B4FD46
:1009F00001201449C1F89001FFF721FF10BD10B587
:100A000000200F4908604FF0B900FFF7A5FD012055
:100A10000C49C1F89001032001F072FF10BD10B520
:100A20000020074908604FF0AB00FFF795FD01205B
:100A30000449C1F89001032001F062FF10BD0000DD
:100A400090012142000021420008014014000020D2
:100A5000FA08002010B504462046FFF77DFD10BDC2
:100A600010B53820FFF7D5FD10BD10B50020FFF7F9
:100A7000D0FD10BD08B50121042002F069FE102050
:100A8000ADF800008DF8030003208DF802006946E0
:100A9000F64802F0A9FB1021F44802F050FCFFF7E1
:100AA00082FD0120F249086008BD10B50120F0491F
:100AB00008604FF0FF00FFF7CDFF10BD10B5002418
:100AC00000BFFF20FFF7C6FFFF2801D1002010BDA7
:100AD000641C6FF07F408442F3D30120F7E710B528
:100AE0000020E3490860FFF7E9FF08B9002010BDC6
:100AF000FFF7DBFF0120FAE770B505464FF6FF74FC
:100B000001E0601E84B2FF20FFF7A4FFA84201D0DD
:100B1000002CF6D10CB9FF2070BD0020FCE770B5A9
:100B200004460D46FE20FFF7E7FF08B1012070BD27
:100B300004E0FF20FFF710FD2070641C2800A5F1E1
:100B400001018DB2F5D1FF20FFF784FFFF20FFF7F1
:100B500081FF0020EBE770B506460D46FFF7AEFFBC
:100B600008B1012070BD2846FFF774FFFD2D19D094
:100B7000002404E0305DFFF7EFFC601C84B2B4F5A4
:100B8000007FF7DBFF20FFF765FFFF20FFF762FF25
:100B9000FF20FFF75FFF044604F01F00052801D087
:100BA0000220DFE70020DDE72DE9F04105460C4695
:100BB00017464FF00008FFF778FFFFF790FF10B1DE
:100BC000FF20BDE8F08145F04000FFF743FF200E15
:100BD000FFF740FFC4F30740FFF73CFFC4F30720D3
:100BE000FFF738FFE0B2FFF735FF3846FFF732FF77
:100BF0000C2D02D1FF20FFF72DFF4FF01F0800BF83
:100C0000FF20FFF727FF064616F0800F06D05FEAA9
:100C10000800A8F1010101F0FF08F1D13046D0E74A
:100C200070B50546012200210A20FFF7BDFF0446EA
:100C300024B910212846FFF772FF0446FFF735FF5D
:100C40000CB1012070BD0020FCE770B50546012203
:100C500000210920FFF7A8FF044624B910212846E7
:100C6000FFF75DFF0446FFF720FF0CB1012070BDC8
:100C70000020FCE77FB56846FFF7E7FF10B10020D2
:100C800004B070BD9DF8000000F0C000402809D1FC
:100C90009DF809009DF8081000EB0120401C84B26B
:100CA000A50220E09DF8050000F00F009DF80A1055
:100CB00000EBD1109DF8091001F0030100EB410099
:100CC000861C9DF8080080119DF8071000EB81003C
:100CD0009DF8061001F0030100EB8120441CA6F1F1
:100CE000090004FA00F52846CAE7F8B5FFF7C2FE86
:100CF000FFF7B6FE002504E0FF20FFF7ABFE681CFF
:100D000085B20A2DF8DB142600BF95220021084683
:100D1000FFF74AFF0446012C04D03000A6F1010180
:100D20008EB2F2D1002053490870012C4AD187229B
:100D30004FF4D5710820FFF737FF012847D1002570
:100D400006E0FF20FFF786FE0DF80500681C85B25F
:100D5000042DF6DB9DF80200012879D19DF80300EF
:100D6000AA2875D14FF6FE7600BF01220021372058
:100D7000FFF71AFF012291072920FFF715FF04460C
:100D800024B13000A6F101018EB2EED1002E5FD069
:100D9000012200213A20FFF707FF002858D1002543
:100DA00006E0FF20FFF756FE0DF80500681C85B22F
:100DB000042DF6DB9DF8000010F0400F03D0062054
:100DC0002C49087044E004202A49087040E00122C0
:100DD00000213720FFF7E8FE012200212920FFF73C
:100DE000E3FE0446012C17DC0220224908704FF66E
:100DF000FE7600BF012200213720FFF7D5FE012239
:100E000000212920FFF7D0FE0446BCB13000A6F136
:100E100001018EB2EED111E00120164908704FF6A3
:100E2000FE7600BF012200211046FFF7BDFE0446FA
:100E300024B13000A6F101018EB2F3D12EB101220E
:100E400051021020FFF7B0FE10B1002009490870D0
:100E5000FFF72BFEFFF709FE0648007808B10020D7
:100E6000F8BD0CB12046FBE7AA20F9E700080140D5
:100E70008C012142160000202DE9F04106460F4664
:100E800015463C480078062800D07F02012D0CD181
:100E9000012239461120FFF787FE0446FCB969029A
:100EA0003046FFF73CFE044619E001223946122085
:100EB000FFF77AFE044600BF4FF400713046FFF79B
:100EC0002EFE044606F50076681EC0B2050001D06D
:100ED000002CF1D0012200210C20FFF765FEFFF766
:100EE000E4FD2046BDE8F0812DE9F04106460F46BD
:100EF000154620480078062800D07F02012D0CD12D
:100F0000012239461820FFF74FFE04466CBBFE2134
:100F10003046FFF720FE044627E0164800780128F7
:100F200009D0012200213720FFF73EFE0122294689
:100F30001720FFF739FE012239461920FFF734FE4A
:100F4000044694B900BFFC213046FFF704FE044676
:100F500006F50076681EC0B2050001D0002CF2D064
:100F6000FD210020FFF7F7FD0446FFF79EFD204618
:100F7000BDE8F081160000202DE9F04106460D463F
:100F80004FF40061FE4802F0DCF94FF48051FC4858
:100F900002F0D7F97E2000EA460708241BE017F08C
:100FA000800F05D04FF48071F64802F0C8F904E0D4
:100FB0004FF48071F34802F0C4F94FF40061F04837
:100FC00002F0BDF97806070E4FF40061EC4802F01C
:100FD000B8F9601EC4B2002CE1DC08241BE015F057
:100FE000800F05D04FF48071E64802F0A8F904E0C4
:100FF0004FF48071E34802F0A4F94FF40061E04837
:1010000002F09DF96806050E4FF40061DC4802F01D
:1010100098F9601EC4B2002CE1DC4FF48051D8482E
:1010200002F08DF94FF40061D54802F088F9BDE86F
:10103000F0812DE9F041064600254FF48051D0485B
:1010400002F07FF97E2000EA460040F08007082485
:101050001BE04FF40061CA4802F073F917F0800FEB
:1010600005D04FF48071C74802F069F904E04FF4ED
:101070008071C44802F065F94FF40061C04802F085
:101080005EF97806070E601EC4B2002CE1DC08246D
:1010900016E04FF40061BA4802F053F96806050EF5
:1010A0004FF40061B64802F04AF94FF40061B548C8
:1010B00002F02BF9012801D145F00105601EC4B2F0
:1010C000002CE6DC4FF48051AD4802F038F94FF4C3
:1010D0000061AB4802F033F92846BDE8F08170B5F5
:1010E00005460C4600262846FFF7A3FF064646EABB
:1010F00004012846FFF740FF70BD70B505460C4659
:1011000000262846FFF795FF064626EA04012846F2
:10111000FFF732FF70BD2DE9FE4F06468846914627
:101120009A46DDF830B00220029000200190009035
:101130000C2E06D00E2E09D1122001901020009006
:1011400005E0772001903020009000E000BF00BF54
:10115000019840F080010220FFF70EFF802104205B
:10116000FFF7CBFF00210120FFF706FF80210A20B7
:10117000FFF7B5FF002505E018F805100920FFF777
:10118000FBFE6D1C4D45F7D331460120FFF7F4FE01
:101190000C2E03D180210D20FFF7A1FF4FF4FA653B
:1011A00000BF0420FFF745FF04466D1E2DB114F06B
:1011B000010F02D100980442F3D080210D20FFF7E7
:1011C0009CFF95B30620FFF734FF10F01B0F2DD1C5
:1011D000002002900198204010F0010F01D0012062
:1011E00002900C2E24D10A20FFF723FF04460C2086
:1011F000FFF71FFF00F007072FB1601E07EBC000CD
:10120000CBF8000002E0E000CBF8000004B90124B4
:10121000122C00DD1224002505E00920FFF709FF4C
:101220000AF805006D1CA542F7D301E002200290E8
:1012300080210C20FFF753FF00210120FFF79CFEC7
:101240000298BDE8FE8F70B588B005460C460026B2
:1012500000200790142102A80CF0E1FE08210846A6
:10126000FFF74BFF07210D20FFF786FE0321142017
:10127000FFF735FF8DF8085007A802AB012202A93D
:1012800000900C20FFF747FF06464EB9079810283C
:1012900006D19DF8080020709DF80900607000E0FC
:1012A0000226304608B070BDF0B587B0054600276D
:1012B00008210846FFF721FF00210D20FFF75CFE03
:1012C00080210E20FFF719FF93208DF804002020C5
:1012D0008DF8050006A801AB022201A900900C20A0
:1012E000FFF719FF064686B9002407E001A8005D54
:1012F000285501A8005D4740601CC4B2042CF5DBF2
:1013000001A8005DB84200D0022680210E20FFF720
:10131000E6FE304607B0F0BD2DE9F04107468846AD
:10132000154604210520FFF7E8FE00210120FFF704
:1013300023FE80210A20FFF7D2FE002405E0395D5C
:101340000920FFF719FE601CC4B24445F7DB0321F6
:101350000120FFF711FEFF2400BF0520FFF769FE03
:101360000646601EC4B214B116F0040FF5D0222058
:10137000FFF75FFE28702120FFF75BFE687003E037
:10138000000C014000080140BDE8F08170B588B054
:10139000054693208DF8080070208DF80900002084
:1013A0008DF80E0000240BE0295D02AAA01C115448
:1013B0009DF80E00295D48408DF80E00601CC4B2F7
:1013C000042CF1DB0DF10F02072102A8FFF7A4FFA7
:1013D00008210846FFF791FE07A802AB092202A9DF
:1013E00000900C20FFF797FE064626B907981828AC
:1013F00001D1002600E00226304608B070BD2DE97C
:10140000F04387B005460E46174698464FF0000950
:10141000002006900024142101A80CF000FE8DF895
:1014200004508DF8056000BF05E0395D01AAA01CDD
:101430001154601CC4B2062CF7DB002407E018F836
:10144000041001AA04F108001154601CC4B2062C57
:10145000F5DB06A801AB0C2201A900900E20FFF7D6
:101460005AFE8146B9F1000F05D10820FFF7E1FDD2
:1014700010F0080F01D14FF00209484607B0BDE84F
:10148000F083F0B587B005460E4630208DF8040095
:101490008DF805500DF10602022101A8FFF73CFF6F
:1014A00006A801AB042201A900900C20FFF733FE2F
:1014B000074667B90698902809D1002404E001A8DE
:1014C000005D3055601CC4B2102CF8DB00E0022730
:1014D000384607B0F0BDF0B587B006460F46A020ED
:1014E0008DF804008DF805600DF10602022101A8B7
:1014F000FFF712FF06A801AB042201A900900C20FF
:10150000FFF709FE054645B90698042805D19DF860
:10151000040000F00F000A2800D002250DBB0024B3
:1015200004E0385D01A90855601CC4B2102CF8DB3A
:1015300005AA102101A8FFF7EFFE06A801AB1222B1
:1015400001A900900C20FFF7E6FD054645B9069875
:10155000042805D19DF8040000F00F000A2800D0EF
:101560000225284607B0F0BD10B588B050208DF890
:10157000080000208DF809000DF10A02022102A8DE
:10158000FFF7CAFE07A802AB042202A900900C20B4
:10159000FFF7C1FD0446204608B010BD10B54FF45A
:1015A0008051BE4801F0CBFE012001F0A9F94FF4B3
:1015B0008051BA4801F0C5FE012001F0A1F94FF4B5
:1015C0008051B64801F0BBFE012001F099F90F21CE
:1015D0000120FFF7D1FC012001F092F93D211120FB
:1015E000FFF7CAFC1E212D20FFF7C6FC00212C208E
:1015F000FFF7C2FC8D212A20FFF7BEFC3E212B20E5
:10160000FFF7BAFC40211520FFF7B6FC002010BD03
:1016100010B51420FFF70DFD044614F0030F03D19D
:1016200003211420FFF75BFD10BD10B50446412CCB
:1016300025D108210846FFF760FD3D211120FFF765
:101640009BFC86211720FFF797FC7F212620FFF7C0
:1016500093FC1E212D20FFF78FFC00212C20FFF78B
:101660008BFC8D212A20FFF787FC3E212B20FFF7E2
:1016700083FC0A2001F067F9FFF7CAFF01E00220AE
:1016800010BD0020FCE710B503211420FFF735FD45
:1016900010BDF0B587B006460D4617468DF80460BC
:1016A0008DF805500DF10602022101A8FFF734FE66
:1016B00006A801AB042201A900900C20FFF72BFD26
:1016C000044644B90698042805D19DF8040000F0AA
:1016D0000F000A2800D00224A4B93868019002AA99
:1016E000042101A8FFF718FE0020069006A801AB10
:1016F000062201A900900C20FFF70DFD0446022CE4
:1017000000D00024F4B9B0208DF804008DF8055005
:101710000DF10602022101A8FFF7FEFD06A801ABAC
:10172000042201A900900C20FFF7F5FC044644B9FF
:101730000698042805D19DF8040000F00F000A283F
:1017400000D00224204607B0F0BD70B588B0054631
:101750000E46C2208DF808008DF809500DF10A02DE
:10176000022102A8FFF7D8FD07A802AB042202A9B4
:1017700000900C20FFF7CFFC044644B907980428DA
:1017800005D19DF8080000F00F000A2800D00224BF
:10179000CCB900208DF808008DF809008DF80A00FA
:1017A0008DF80B0003AA042102A8FFF7B5FD07A8D6
:1017B00002AB062202A900900C20FFF7ACFC044605
:1017C000022C00D0002414B1022008B070BDB0205B
:1017D0008DF808008DF809600DF10A02022102A8B7
:1017E000FFF79AFD07A802AB042202A900900C2083
:1017F000FFF791FC044644B90798042805D19DF8E9
:10180000080000F00F000A2800D002242046DCE780
:1018100010B5FEF70BFFFFF7C1FEFFF734FFFFF730
:10182000F7FE4120FFF701FF642001F08CF86420EF
:1018300001F089F810BDFEB50646002400250027FA
:10184000002001900290009069465220FFF7FBFCB7
:101850000546FDB900BF03E01DF80470601CC4B26A
:10186000022CF9DB6846FFF71FFD054695B90024F9
:101870000CE01DF80470102201A9384608F0A1FE02
:1018800001A930460CF026FB601CC4B2042CF0DB2E
:101890000020FEBD4FF0FF30FBE7000000080140D4
:1018A00008B54FF48040ADF8000048208DF80300E3
:1018B00003208DF802006946624801F095FC4FF460
:1018C0000040ADF8000003208DF8020010208DF8D4
:1018D000030069465B4801F087FC08BD70B5002431
:1018E00000254FF48041574801F029FD4FF4004195
:1018F000544801F026FD00BF4FF48041514801F0EB
:1019000004FD0028F8D1012000F0FAFF002519E0BD
:101910004FF400414B4801F012FD6400012000F03B
:10192000EFFF4FF40041474801F00BFD4FF48041B9
:10193000444801F0EAFC00B1641C012000F0E0FF23
:10194000681CC5B2182DE3DB4FF400413D4801F09F
:10195000F6FC012000F0D4FF84F400044FF40041B1
:10196000384801F0EEFC012000F0CAFF204670BDAF
:101970002DE9F84F8346002000908046FFF7AEFF28
:10198000009000980EF0F0F881460DF029FF044613
:1019900000222D4B0DF03CFD06460DF05FFC80460D
:1019A0004FF0864140460DF0B5FF8046414658460F
:1019B0000EF0EEF816D2414658460EF0F0F9804689
:1019C00040460DF00DFF8146204A214B0DF020FDD1
:1019D0000646204A204B0DF073FC04460DF03EFCF9
:1019E000804601E04FF000084046BDE8F88F2DE941
:1019F000F05F4FF005084FF000094FF0000A1BE0C0
:101A0000FFF76CFF814648460EF0AEF883460DF0B6
:101A1000E7FE064600220C4B0DF0FAFC04460DF0E2
:101A20001DFC82464FF0864150460DF073FF824602
:101A3000A8F1010000F0FF08B8F1000FE0DC50460B
:101A4000BDE8F09F000801400088333FCAC342ADA3
:101A5000694E30409A9999999999A93F08B5032000
:101A60008DF8000000208DF801008DF802000120A3
:101A70008DF80300684602F0DEF808BDF0B50346B5
:101A80000C461546642093FBF0F0C6B2642093FB2D
:101A9000F0F700FB1730C1B2132E02DD01F1640034
:101AA000C1B20846CF1701EB977701EBA7020720D9
:101AB00092FBF0F700FB172082B25719601EDFF887
:101AC00000C31CF80000384482B2CF1701EB9777AF
:101AD000BF10B1EB870703D1032C01DA501E82B28D
:101AE000072092FBF0F700FB1720C0B2F0BD0146C3
:101AF000CA1701EB92729210B1EB820212D16420EC
:101B000091FBF0F200FB121050B94FF4C87091FB3A
:101B1000F0F200FB121008B9012070470020FCE72A
:101B20000120FAE70020F8E770B500260024002520
:101B300002F0EAFA0646A348B6FBF0F4A248008891
:101B4000A0423CD0A0490C8040F2B27510E028467B
:101B5000FFF7CDFF40B1B4F5B77F02D3A4F5B7745A
:101B600004E0681C85B206E0A4F26D14681C85B21E
:101B7000B4F5B67FEBD800BF94488580002516E009
:101B800092498888FFF7B3FF30B1012D04D11D2C95
:101B900001D31D3C09E00CE08D48405DA04203D814
:101BA0008B48405D241A00E003E0681C85B21C2CC1
:101BB000E6D200BF681C85498871601CC8718148E5
:101BC000B6FBF0F100FB11644FF46160B4FBF0F080
:101BD0007E4908704FF46160B4FBF0F100FB1140E6
:101BE0003C21B0FBF1F0794948704FF46160B4FBDF
:101BF000F0F100FB11403C21B0FBF1F201FB1200BF
:101C0000724988700B46DA7999799888FFF736FF20
:101C10006E490872002070BD2DE9F05F06460F4640
:101C200090469946DDE90AAB002440F2B270864244
:101C300003DB40F63300864202DD0120BDE8F09F61
:101C400040F2B2750AE02846FFF751FF10B1614833
:101C5000044401E060480444681C85B2B542F2DBEC
:101C6000781EC7B2002510E05948405D40F2A3211C
:101C7000484304EBC0143046FFF739FF18B1012D7B
:101C800001D150480444681C85B2BD42ECDBA8F188
:101C9000010040F2A321484304EBC014C9EB4910F2
:101CA000C0EB092004EB0014CAEB0A1004EB80041B
:101CB0005C4401214FF0C05001F057FD012002F0BB
:101CC000B4FA204602F029FA02F05AFA0020B5E7E9
:101CD0001CB50024042002F0CEF9A0F5A041503933
:101CE00047D001214FF0C05001F03FFD012002F02C
:101CF0009CFA02F091F9012001F09AFC04E0601CCA
:101D0000C4B20A2000F01FFE412001F0FCFB0028B5
:101D1000F5D0FA2C01DB01201CBD4FF4807001F0DE
:101D2000A0FC012001F0A3FC02F02AFA02F030FA34
:101D30000121084602F0C6F902F022FA02F0D1F9B8
:101D400047F6FF7002F0F6F902F01AFA3720002188
:101D50000A230222CDE900100C2140F2D970FFF7CE
:101D60005BFF02F0C7F945F25001042002F07DF953
:101D700007E002F00DFA0121084602F0A3F902F093
:101D8000FFF9FFF76BFEFFF7CFFE0020C4E710B5A9
:101D9000012002F023FA08B1FFF7C6FE022002F08C
:101DA0001DFA10B1022002F029FA052002F026FAED
:101DB00002F0E6F910BD10B502F0A6F910BD000062
:101DC000A2FE00088051010018000020FA1800202F
:101DD000AEFE00080085E2018033E101844880699D
:101DE00040F00100824988610846806940F008009F
:101DF000886180480068C0F313007E490860084687
:101E000000687D4908437B490860081F006820F08E
:101E1000FF00091F08600846006840F033000860B2
:101E20007348806940F01000714988617348006808
:101E300020F47000714908600846006840F4000012
:101E400008600846806840F0200088606848C069E3
:101E500040F480406649C861694800886849088044
:101E60000846008840F4007008800846008840F466
:101E7000807008800846008840F00400088008460A
:101E8000008808800846008840F002000880084664
:101E9000008840F0010008800846008840F00800F3
:101EA00008800846008808800846008840F0400006
:101EB00008807047014600BF51480830008810F084
:101EC000020FF9D04E480C30018000BF4C4808305A
:101ED000008810F0010FF9D049480C300088C0B2DA
:101EE00070470120474908604749C1F8140170470D
:101EF000012044490860704700B502461046FFF7CC
:101F0000D9FF00BD00BF3E480830008810F0010F27
:101F1000F9D03B480C300088C0B2704710B5044679
:101F20000120384908604FF00A0000F0E9FC0A205F
:101F300000F0E6FC00203549C1F880012046FFF79B
:101F4000DBFF0A2000F0DCFC0A2000F0D9FC0A20AC
:101F500000F0D6FC0A2000F0D3FC10BD10B50446FA
:101F60002046FFF7C9FF0A2000F0CAFC10BD10B5DB
:101F70000A2000F0C5FCFF20FFF79CFF0446204626
:101F800010BD2349096809B9012100E00021084674
:101F9000704710B5C82000F0D6FCC82000F0D3FC74
:101FA000C82000F0D0FCFFF79CFF0620FFF7B6FF2B
:101FB0005520FFF7D3FFFFF7DAFF0446FFF798FF3E
:101FC000AA2C01D0FA2010BD1520FFF7A7FF06208C
:101FD000FFF7C4FF142000F093FCFFF7C8FF04468E
:101FE000FFF786FF512C01D11420ECE7FA20EAE735
:101FF00000100240040C01400000B0B80010014085
:1020000000380040808121420000224200802142AD
:10201000140122420146142901D1012070470020F9
:10202000FCE7000070B504462720FFF777FFFFF7B5
:102030009EFF0646054646B100BFFFF798FF207099
:10204000641C701EC0B20600F7D1FFF751FF28468E
:1020500070BD70B504462D20FFF760FFFFF787FFC6
:102060000646054646B100BF2078FFF777FF641C9F
:10207000701EC0B20600F7D1FFF73AFF284670BDC8
:1020800070B505460C462C20FFF748FF2046FFF7A9
:1020900065FF44B100BF2878FFF760FF6D1C601E2C
:1020A000C0B20400F7D1FFF723FF70BD70B505463D
:1020B0000E4614462E20FFF731FF3046FFF74EFF45
:1020C0002046FFF74BFF44B100BF2878FFF746FFDB
:1020D0006D1C601EC0B20400F7D1FFF709FF70BD90
:1020E00070B505462F20FFF719FF2C782046FFF723
:1020F00035FF09E06D1C2C785C2C01D02F2C00D111
:1021000000242046FFF72AFF002CF3D1FFF7F0FE52
:1021100070BD2DE9F041FFF72AFF0446FFF727FFC6
:102120000546FFF724FF0646FFF721FF0746FFF7A6
:10213000DFFE44EA052040EA064040EA0760BDE8C9
:10214000F08170B504460A20FFF7E8FE2046FFF74D
:1021500005FFFFF70CFF0546FFF7CAFE284670BDD6
:1021600070B505460C460B20FFF7D8FE2846FFF752
:10217000F5FE2046FFF7F2FEFFF7BAFE70BD10B580
:1021800004460C20FFF7CAFE2046FFF7E7FEFFF7E4
:10219000C0FF10BD70B505460C460D20FFF7BEFE12
:1021A0002846FFF7DBFEE0B2FFF7D8FEC4F30720B6
:1021B000FFF7D4FEC4F30740FFF7D0FE200EFFF771
:1021C000CDFEFFF795FE70BD10B500210D20FFF785
:1021D000C7FF10BD10B56820FFF7D1FF10BD10B5C7
:1021E0002B20FFF7AEFF10BD10B52220FFF796FEA3
:1021F000FFF7BDFE0446FFF77BFE204610BD10B57D
:10220000002406E0FFF7BDFE10B1FFF7EDFF10BDA3
:10221000641CFE488442F5D3FA20F8E710B5044662
:102220002046FFF77BFEFFF763FEFFF7E8FF10BDD8
:1022300070B505460C462846FFF770FE2046FFF7AE
:102240008DFEFFF755FEFFF7DAFF70BD10B50520D4
:1022500000F079FB5A20FFF7E1FF0446052000F06B
:1022600072FB204610BD10B5FFF78BFE08B1FFF7DB
:10227000BBFF3020FFF7D2FF10BD10B53120FFF7B4
:10228000CDFF10BD10B504462046FFF729FF20788A
:102290005C2802D020782F2803D100216420FFF78A
:1022A00079FF3220FFF7BAFF10BD10B5044614B114
:1022B0002046FFF715FF3420FFF7B0FF10BD10B523
:1022C00004462046FFF70CFF20785C2802D02078D7
:1022D0002F2803D100216420FFF75CFF4020FFF787
:1022E0009DFF10BD0246114600E0491C08780028F9
:1022F000FBD100E0491E08785C2804D008782F281C
:1023000001D09142F6D1914200D0491C881AC0B246
:1023100070472DE9F04105460F460026012429E0CB
:1023200001E0601CC4B2285D5C2805D0285D2F2820
:1023300002D0285D0028F4D1285D10B1601CC4B221
:1023400000E00024A819FFF79DFF064684B1BC42B7
:102350000ED0412E0AD0142E02D14320BDE8F081C8
:10236000422E01D1B320F9E73046F7E7264601E0D7
:102370003046F3E7D4E710B50446FF212046FFF7C7
:10238000C8FF10BD70B506463046FFF7ABFF0546E7
:1023900085B129463046FFF7BCFF0446412C09D0E1
:1023A000142C01D1432070BD422C01D1B320FAE797
:1023B0002046F8E77019FFF778FFF4E770B5054697
:1023C000DDB1012401E0601CC4B2285D5C2805D0A9
:1023D000285D2F2802D0285D0028F4D1285D48B15F
:1023E0002846FFF7C8FF0446142C06D0412C04D021
:1023F000204670BD2846FFF773FE3520FFF70EFF1D
:10240000F7E710B5044621463620FFF711FF10BD4F
:1024100010B5FF213720FFF70BFF10BD10B5382096
:10242000FFF7FCFE10BD70B5044625463920FFF7C6
:1024300075FDE8B2FFF792FDC5F30720FFF78EFDAB
:10244000C5F30740FFF78AFD280EFFF787FDFFF76A
:102450004FFDFFF7D4FE70BD2DE9F04107460E4653
:1024600014463A20FFF75AFDF0B2FFF777FD30121D
:10247000FFF774FDFFF73CFD0CB10020208016E053
:10248000FFF7BDFE05461D2D0ED13846FFF7CAFDEC
:1024900005463B20FFF742FDFFF72AFD2F4434B1EC
:1024A00020882844208002E02846BDE8F081E7E744
:1024B0002DE9F04107460E4614463C20FFF72EFD5D
:1024C000F0B2FFF74BFD3012FFF748FDFFF710FDAC
:1024D0000CB10020208016E0FFF791FE05461E2D6E
:1024E0000ED13846FFF7B5FD05463D20FFF716FD36
:1024F000FFF7FEFC2F4434B120882844208002E0FE
:102500002846BDE8F081E7E770B504463E20FFF7B6
:1025100085FE0546142D08D12720FFF7FFFCFFF7A5
:1025200026FDFFF7F6FD206001E000202060284630
:1025300070BD2DE9F04704463F20FFF76FFE0546CA
:10254000142D24D12720FFF7E9FCFFF710FDFFF73A
:102550000EFDFFF70CFDFFF70AFDFFF708FDFFF783
:1025600006FD0646FFF703FD0746FFF700FD804620
:10257000FFF7FDFC814646EA072040EA084040EAB2
:1025800009602060FFF7F3FCFFF7B2FC01E00020D8
:1025900020602846BDE8F08710B504464A20FFF7C2
:1025A000BDFCE0B2FFF7DAFCC4F30720FFF7D6FC6E
:1025B000C4F30740FFF7D2FC0020FFF7CFFCFFF782
:1025C00097FCFFF71CFE10BD2DE9F04780460C4636
:1025D00016464FF0000947E05420FFF79FFCE0B299
:1025E000FFF7BCFCC4F30720FFF7B8FCC4F30740B7
:1025F000FFF7B4FC200EFFF7B1FC3046FFF7AEFC4E
:10260000FFF776FC7002C11702E00000404B4C005F
:1026100000EB91618F1112E0FFF7F1FD05461D2DD2
:102620000AD14046FFF7FEFC05465520FFF776FC31
:10263000FFF75EFCA84400E003E0781E87B2002F9D
:10264000EAD100BF37B9FFF7DAFD0546142D01D1F5
:10265000BDE8F087162D01D12846F9E7FFF7F6FD12
:1026600009F1010000F0FF09B9F1030FB4D12846C8
:10267000EEE72DE9F04780460C4616464FF000097C
:1026800044E05620FFF74AFCE0B2FFF767FCC4F3D2
:102690000720FFF763FCC4F30740FFF75FFC200E41
:1026A000FFF75CFC3046FFF759FCFFF721FC700296
:1026B000C11700EB91618F1113E0FFF7A0FD0546F4
:1026C0001E2D0BD140214046FFF7DAFC5720FFF7C3
:1026D00025FCFFF70DFC08F1400800E003E0781E40
:1026E00087B2002FE9D100BF37B9FFF788FD054653
:1026F000142D01D1BDE8F087162D01D12846F9E748
:10270000FFF7A4FD09F1010000F0FF09B9F1030F83
:10271000B7D12846EEE72DE9F05F82460E46154612
:102720000DB10020287000BF0120FFF7F7FBFFF775
:102730001EFC0446412C31D10C20FFF7EFFB682032
:10274000FFF70CFCFFF713FCFFF711FC8046FFF7C7
:102750000EFC48EA0028FFF70AFC044648EA044851
:102760000C20FFF7DBFB6C20FFF7F8FBFFF7FFFB0C
:10277000FFF7FDFB8146FFF7FAFB49EA0029FFF767
:10278000F6FB49EA004909F5FF70804504D3FF21B3
:102790006B20FFF7E5FC02E0FF2400E0FF244B2064
:1027A000FFF7BCFB3046FFF7D9FBFFF7A1FBFFF7B4
:1027B00026FD0746FF2C03D021466B20FFF7D0FCF7
:1027C000142F02D03846BDE8F09F2720FFF7A6FB64
:1027D000FFF7CDFBFFF7CBFB0446FFF7C8FBFFF786
:1027E000C6FBFFF7C4FBFFF794FC834604B913E074
:1027F000224659465046FFF7E7FE0746142F01D000
:102800003846E0E70AEB442A15B1287820442870BE
:10281000301BC6B2002E87D100BF3846D3E72DE962
:10282000F04780460E4615460DB10020287000BFC7
:102830004C20FFF773FB3046FFF790FBFFF758FB88
:10284000FFF7DDFC0746142F02D03846BDE8F087BD
:102850002720FFF763FBFFF78AFBFFF788FB04469F
:10286000FFF785FBFFF783FBFFF781FBFFF751FCC9
:10287000814604B913E0224649464046FFF7F9FE77
:102880000746142F01D03846E0E708EB442815B17D
:10289000287820442870301BC6B2002EC8D100BF53
:1028A0003846D3E710B501F082FF02F0C6F801F018
:1028B00099FF10BD10B56FF0040001F007FA314820
:1028C00000683149B0FBF1F0304908702D480068CC
:1028D0002D49B0FBF1F441F28830444305202C49E6
:1028E00008804FF0E020006940F002004FF0E02146
:1028F000086108464461006940F00100086110BDAC
:1029000070B5034600224FF0E02675691F4E3678F9
:1029100003FB06F400BF4FF0E026B16910E04FF072
:10292000E026B06988420BD0884202D20E1A3244A7
:1029300002E02E1A0E4432440146A24200D300E0C7
:10294000EDE700BF70BD70B504461248007801285D
:1029500011D10F480088844206DB0D48008894FBA3
:10296000F0F5284603F05CFD0948008894FBF0F17F
:1029700000FB114084B24FF47A7104FB01F0FFF7C1
:10298000BFFF70BD0000002000127A001A00002076
:102990001C000020EA00002010B54FF4A06001F0F8
:1029A00045F910BD014600BF704700BFFD4A1288BF
:1029B00012F0400FFAD0C2B2FA4B1B1D1A807047BA
:1029C00010B501F0F4FE40F22551F74801F0EBF8A4
:1029D00060B1F54801F067F8C4B2F44804700078BB
:1029E00010F0040F02D00120F149088001F0FAFE36
:1029F00010BD10B586B004460121042000F0A8FEE9
:102A00000121480400F0B1FEE74800F009FF04206E
:102A1000ADF8140003208DF8160018208DF817006B
:102A200005A9E44800F0E0FB0820ADF814000420FC
:102A30008DF8170005A9DF4800F0D6FB26208DF899
:102A4000000004208DF8010003208DF80200012011
:102A50008DF80300684601F0EEF801940020ADF80F
:102A60000800ADF80A00ADF80C00ADF810000C201D
:102A7000ADF80E0001A9CC4800F015FF012240F28C
:102A80002551C94800F0A7FF0121C74800F097FF72
:102A900006B010BD002106E0002100E0491CB1F5A0
:102AA0002F7FFBD3401E0028F6D1704710B592B09F
:102AB00004460121084600F03EFE012144F20400D4
:102AC00000F046FEBC4801F00BFCB648001D01902A
:102AD000BA480290102003908020049000200590B6
:102AE0008020069000200790089009900A900B9093
:102AF00001A9B14801F096FCAF48143001F0F0FB99
:102B0000A848001D0190AE480290002003904FF4A9
:102B1000007004900020059080200690002007900F
:102B200008902020099000200A900B9001A9A2484B
:102B3000143001F077FC9B4800F072FE4FF40070F7
:102B4000ADF8440003208DF8460018208DF84700AA
:102B500011A9984800F048FB4FF48060ADF844009C
:102B600004208DF8470011A9924800F03DFB252074
:102B70008DF8300003208DF831008DF832000120EF
:102B80008DF833000CA801F056F80E208DF83000B7
:102B900000208DF8310001208DF832008DF83300CF
:102BA0000CA801F048F80D940020ADF83800ADF8FD
:102BB0003A00ADF83C00ADF840000C20ADF83E0006
:102BC0000DA9784800F06FFE01228021754800F0C1
:102BD00027FF01224021734800F022FF012176489F
:102BE00001F04BFC01217448143001F046FC012136
:102BF0006C4800F0E4FE12B010BD10B50122802137
:102C0000684800F00DFF00216B4801F036FC802180
:102C1000694801F047FC0121674801F02EFC10BD16
:102C200010B5012240215F4800F0FAFE0021624801
:102C3000143001F022FC4FF400715F48143001F0B1
:102C400031FC01215C48143001F017FC10BD5D49D6
:102C5000097801291DD100BF57494439096811F489
:102C6000005FF9D054494439496841F47041524AEF
:102C7000443A51601146496C21F001015164002130
:102C8000504A117000BF4749098811F0800FFAD0EF
:102C900005E000BF4349098811F0800FFAD041498F
:102CA000091D088000BF3F49098811F0800FFAD044
:102CB0007047F0B5034600200024424D2D78012DC9
:102CC00013D100BF3C4D443D2D6815F4005FF9D091
:102CD000394D443D6D6845F47045374E443E75604E
:102CE00035466D6C25F0010575640125354E35704E
:102CF00055270546461CF0B2304E7755551CEFB2AD
:102D00000546461CF0B22D4E77550546461CF0B2DE
:102D10002A4E73551C4609E00F780546461CF0B252
:102D2000264E775511F8016B3519ECB21500A2F15A
:102D30000106F2B2F0D10546461CF0B21F4E7455A2
:102D4000AA270546461CF0B21C4E77551A4D443D45
:102D5000A8643546184E443E3565124D14352D880D
:102D600045F080050F4E14363580134D443D6D6C93
:102D700045F00105104E443E7564F0BDF0B50E48B7
:102D80004438C06DC0F500700F4E3080304600886A
:102D90000E4E3688801B84B2C4F30804C4B90020E8
:102DA000F0BD00000038014000440040041900203C
:102DB00020000020000801404400024022000020C2
:102DC0004C1A0020A2000020A6000020A400002031
:102DD000C148C24E3688805D55287AD1042C01DA6C
:102DE0000020F0BDBD480088401C83B2C3F3080337
:102DF0001E465B1CB848815DC3F30803081DA04252
:102E000013DDB748008870B1B5480088401EB44E45
:102E10003080B2480088401CB04E30803046008878
:102E2000C0F3080030800020DBE7B1F5FE7F13DD42
:102E3000AB48008820B1AA480088401EA84E3080C8
:102E4000A6480088401CA54E308030460088C0F35C
:102E5000080030800020C4E75818401C82B2C2F33A
:102E600008029D48805CAA2838D1481C9C4E3080BE
:102E700000251A4608E01046561CB2B2964E305C49
:102E80002844C5B2C2F308020800A1F10106F1B25C
:102E9000F1D19148805CA8421CD190480088801CE8
:102EA0008E4E308030460088C0F3080030803046B7
:102EB00006880088401C894F38808748855D3846E1
:102EC0000088C0F308003E463080864801802846CE
:102ED00087E717E00020824E308013E080480088AA
:102EE00020B17F480088401E7D4E30807B4800889E
:102EF000401C7A4E308030460088C0F30800308095
:102F000000206EE77648008820B175480088401E92
:102F1000734E308071480088401C704E30803046BF
:102F20000088C0F30800308000205AE76C49098807
:102F300021B16B490988491E694A118067490A888D
:102F40000988491C654B19806349885C19460988C2
:102F5000C1F308011A4611807047614909880229A6
:102F600005DB5F490988891E5D4A118002E0002166
:102F70005B4A118059490A880988491C574B1980B6
:102F80005549885C19460988C1F308011A46118021
:102F9000000211460A880988491C19804E49895C3B
:102FA000014488B219460988C1F308011A46118004
:102FB00070474B490988042905DB49490988091FDD
:102FC000474A118002E00021454A118043490A889E
:102FD0000988491C414B19803F49885C194609887A
:102FE000C1F308011A461180000211460A880988B7
:102FF000491C19803849895C084319460988C1F37E
:1030000008011A461180000211460A880988491CE5
:1030100019803149895C084319460988C1F30801C0
:103020001A461180000211460A880988491C198035
:103030002949895C084319460988C1F308011A46E1
:103040001180704710B501460846254A1288042AA7
:1030500005DB234A1288121F214B1A8002E000224E
:103060001F4B1A801D4A13881288521C1B4C228049
:10307000194AD25CC27022461288C2F30802234663
:103080001A801A4613881288521C2280124AD25C77
:10309000827022461288C2F3080223461A801A461A
:1030A00013881288521C22800B4AD25C427022463E
:1030B0001288C2F3080223461A801A46138812881F
:1030C000521C2280044AD25C027022461288C2F34B
:1030D000080223461A8010BD4C1A0020A4000020CC
:1030E000AA000020A800002009488047094800479E
:1030F000FEE7FEE7FEE7FEE7FEE7FEE7FEE7FEE7A8
:10310000FEE7FEE704480549054A064B7047000004
:10311000590400083101000888DF002088E50020FC
:1031200088E1002088E1002010B50446CA488442A6
:1031300008D10121042000F025FB0021042000F02B
:1031400021FB46E0C548844208D10121082000F057
:1031500019FB0021082000F015FB3AE0C04884422A
:1031600008D10121102000F00DFB0021102000F0FB
:1031700009FB2EE0BB48844208D10121202000F049
:1031800001FB0021202000F0FDFA22E0B648844235
:1031900008D10121402000F0F5FA0021402000F084
:1031A000F1FA16E0B148844208D10121802000F0F4
:1031B000E9FA0021802000F0E5FA0AE0AC488442F8
:1031C00007D10121801500F0DDFA0021A01500F0E3
:1031D000D9FA10BD10B50121084600F0D3FA00213C
:1031E000012000F0CFFA10BD2DE9F0410246002584
:1031F0000026002000230024002791F803C00CF0D3
:103200000F0591F803C01CF0100F03D091F802C015
:103210004CEA0505B1F800C01CF0FF0F31D014686E
:1032200000202BE04FF0010C0CFA00F3B1F800C0C5
:103230000CEA03069E4220D183004FF00F0C0CFADB
:1032400003F7BC4305FA03FC4CEA040491F803C0FD
:10325000BCF1280F06D14FF0010C0CFA00FCC2F8AB
:1032600014C00AE091F803C0BCF1480F05D14FF03B
:10327000010C0CFA00FCC2F810C0401C0828D1D385
:103280001460B1F800C0BCF1FF0F34DD54680020B9
:103290002EE000F1080C4FF0010808FA0CF3B1F829
:1032A00000C00CEA03069E4221D183004FF00F0CB0
:1032B0000CFA03F7BC4305FA03FC4CEA040491F84A
:1032C00003C0BCF1280F05D100F1080C08FA0CF876
:1032D000C2F8148091F803C0BCF1480F07D100F187
:1032E000080C4FF0010808FA0CF8C2F81080401CD6
:1032F0000828CED35460BDE8F0814FF6FF710180FD
:10330000022181700421C170704702460020936839
:103310000B4201D0012000E0002070470146886880
:1033200080B2704702460020D3680B4201D00120D2
:1033300000E0002070470146C86880B27047016114
:103340007047416170470AB1016100E04161704717
:10335000C16070474FF480320A43826181618261AB
:1033600082698269704702460020424B18684FF616
:103370008073184040EA021008433E4B18607047C3
:103380003D49C8617047F0B50A460023002400217A
:10339000002500F00046B6F1004F02D1354EF1692C
:1033A00001E0344E7168C0F3034583B200F4401667
:1033B000B6F5401F08D121F070612E4E766826F0D8
:1033C00070662C4F7E6012E000F48016B6F5801F08
:1033D00006D1032606FA05F4A14341F0706106E028
:1033E000460D360103FA06F6B14341F0706122B191
:1033F000460D360103FA06F6314300F00046B6F1F9
:10340000004F02D11B4EF16101E01A4E7160F0BD18
:1034100030B500228B071C0F0F2303FA04F2154B63
:1034200008338C1053F824309343124C08348D1019
:1034300044F8253023468C1053F824308C07240F91
:1034400000FA04F423430B4C08348D1044F8253063
:1034500030BD0A490860704700080140000C014077
:10346000001001400014014000180140001C014000
:10347000002001400000014000002042DC0020420A
:10348000DC48006840F00100DA49086008464068FE
:10349000D9490840D749486008460068D7490840DC
:1034A000D44908600846006820F480200860084677
:1034B000406820F4FE0048604FF41F0088607047A9
:1034C000CC49096821F48031CA4A11601146096863
:1034D00021F480211160B0F5803F03D0B0F5802F3A
:1034E0000ED106E0C349096841F48031C14A116038
:1034F00007E0C049096841F4A021BE4A116000E01C
:1035000000BF00BF704710B5014600220023002015
:103510004A11012A02D1B74C236806E0022A02D1DF
:10352000B44C236A01E0B34C636A01F01F0201242A
:1035300094401C4201D0012000E0002010BD70B575
:1035400000240025002600BF3120FFF7DCFF0646DF
:10355000641CB4F5A06F01D0002EF5D03120FFF728
:10356000D2FF08B1012500E00025284670BD0146C4
:103570000020A04A106820F0F80040EAC100106066
:1035800070479F490860704702460020994B586871
:1035900020F47C1042EA01031843964B58607047B0
:1035A00097490866704701460020924A506820F00B
:1035B00003000843506070478E48406800F00C00DC
:1035C0007047014600208B4A506820F0F000084305
:1035D0005060704701460020864A506820F4E06041
:1035E00008435060704701460020824A506820F42A
:1035F000605040EAC1005060704729B17D4A527A5C
:1036000002437C4B5A7206E07A4A527AC343DBB2D9
:103610001A40784B5A7270477A49086070470146E1
:103620000020744A506820F44040084350607047BE
:103630000021754A11706F4A82F82010012802D0CB
:10364000042808D103E001216F4A117004E005212C
:103650006D4A117000E000BF00BF70476B49086001
:1036600070476449096A0143624A116270476749B9
:1036700044390860704730B500210022002400233F
:103680005C4D6D6805F00C0121B1042905D00829B5
:1036900023D105E05E4D056022E05D4D05601FE031
:1036A000544D6D6805F47012524D6D6805F4803408
:1036B000022505EB92421CB9564D554305600BE0BF
:1036C0004C4D6D6815F4003F03D0524D55430560D5
:1036D00002E04F4D5543056002E04D4D056000BFCF
:1036E00000BF444D6D6805F0F00109094A4D6B5C5F
:1036F0000568DD4045603F4D6D6805F4E061090AED
:10370000454D6B5C4568DD4085603A4D6D6805F45C
:103710006051C90A404D6B5C4568DD40C560354D60
:103720006D6805F44041890B3C4D6B5CC568B5FB89
:10373000F3F5056130BD29B12E4A526902432D4B84
:103740005A6104E02B4A526982432A4B5A617047FE
:1037500029B1284A92690243264B9A6104E0254A1E
:1037600092698243234B9A61704729B1214AD269F9
:103770000243204BDA6104E01E4AD26982431D4BAA
:10378000DA61704729B11B4AD2680243194BDA60EB
:1037900004E0184AD2688243164BDA60704729B1B8
:1037A000144A12690243134B1A6104E0114A126968
:1037B0008243104B1A6170471449403908607047C2
:1037C0000F49C86470470B49C87170470948406A7F
:1037D00040F0807007494862704701460020054A62
:1037E00092680A4201D0012000E0002070470149A0
:1037F00088727047001002400000FFF8FFFFF6FEDD
:1038000000004242D800424220100240800442425E
:1038100000127A0000093D00B0000020C000002026
:1038200010B50446FC48844209D101218803FFF702
:10383000A9FF00214FF48040FFF7A4FF32E0F748D2
:10384000844209D101214804FFF7A9FF00214FF468
:103850000030FFF7A4FF25E0F148844209D101219F
:103860008804FFF79CFF00214FF48020FFF797FFAB
:1038700018E0EC48844209D10121C804FFF78FFF0A
:1038800000214FF40020FFF78AFF0BE0E648844256
:1038900008D101210805FFF782FF00214FF48010B5
:1038A000FFF77DFF10BD2DE9F04786B005460E46B7
:1038B0000024A24600BFA1460027B08900B100BF86
:1038C0002F462C8A4CF6FF700440F08804432C826B
:1038D000AC894EF6F3100440B088318908437189F1
:1038E00008430443AC81AC8A4FF6FF400440B089E2
:1038F0000443AC8201A8FFF7BEFEC748874202D14D
:10390000DDF810A001E0DDF80CA0A88910F4004F4C
:1039100008D00AEBCA0000EB0A1031684900B0FB7E
:10392000F1F807E00AEBCA0000EB0A1031688900E1
:10393000B0FBF1F86420B8FBF0F004012009642129
:1039400001FB1089A88910F4004F08D0322000EB49
:10395000C900B0FBF1F000F00700044308E032209A
:1039600000EB09106421B0FBF1F000F00F000443FC
:103970002C8106B0BDE8F0874FF41651016000219C
:103980008180C18001810C214181002181817047AA
:1039900010B502460020108A4FF2FF0318400B8832
:1039A0004C8823438C882343CC88234318431082BC
:1039B00010BD0021018041808180C180704721B10C
:1039C000828942F40052828104E082894DF6FF73BD
:1039D0001A4082817047F0B5034600240026002576
:1039E0000020A1F510676A3F00D100BF1846C1F35F
:1039F000421401F01F06012707FA06F5012C01D138
:103A00000C3004E0022C01D1103000E014301AB167
:103A100007682F43076002E00768AF430760F0BD07
:103A200010B51AB1838A0B43838204E0838ACC43A6
:103A3000A4B22340838210BD028A4FF6F0731A406D
:103A40000282028A0A430282704782894FF2FF7320
:103A50001A40828182890A438281704721B182891A
:103A600042F00202828104E082894FF6FD731A401F
:103A700082817047028A4FF6DF731A400282028AFF
:103A80000A430282704721B1028A42F480420282D4
:103A900004E0028A4BF6FF731A4002827047C1F3BA
:103AA00008028280704701468888C0F3080070478A
:103AB000818941F0010181817047028BD2B202837A
:103AC000028B42EA012202837047028B02F47F429A
:103AD0000283028B0A430283704721B1828A42F03B
:103AE0002002828204E0828A4FF6DF731A408282CB
:103AF000704721B1828A42F01002828204E0828AF9
:103B00004FF6EF731A408282704721B1828A42F0E9
:103B10000802828204E0828A4FF6F7731A4082829A
:103B2000704721B1828942F40042828103E0828998
:103B3000C2F30E028281704721B1828A42F4006290
:103B4000828204E0828A4FF2FF731A4082827047B9
:103B5000828A4FF6FB731A408282828A0A438282EB
:103B6000704721B1828A42F00202828204E0828A96
:103B70004FF6FD731A408282704702460020B1F56D
:103B8000007F00D100BF13880B4201D0012000E06C
:103B90000020704701F40072B2F5007F00D100BF31
:103BA000CA430280704770B50246002400230025F6
:103BB0000020A1F510666A3E00D100BFC1F3421596
:103BC00001F01F03012606FA03F3012D02D19689A5
:103BD000334006E0022D02D1168A334001E0968A76
:103BE00033400C12012606FA04F41688344013B14F
:103BF0000CB1012000E0002070BD10B500220023B0
:103C0000A1F510646A3C00D100BF0A12012494405F
:103C1000A3B2DC43048010BD0038014000440040E2
:103C200000480040004C0040005000403149014332
:103C3000314A1160704770B5002100230F22C4780B
:103C40000CB32D4C246804F4E064C4F5E064210A4C
:103C5000C1F10403CA40447804FA03F184781440A3
:103C600021430901254C0678A155047804F01F056D
:103C70000124AC4005786D114FF0E02606EB850578
:103C8000C5F8004109E0047804F01F050124AC40A8
:103C90001B4D0678761145F8264070BD194A0A403A
:103CA0000243154B1B1F1A60704739B1124A121D8F
:103CB00012680243104B1B1D1A6006E00E4A121DCB
:103CC000126882430C4B1B1D1A607047042808D1F0
:103CD0004FF0E021096941F004014FF0E022116149
:103CE00007E04FF0E021096921F004014FF0E022E4
:103CF000116170470000FA050CED00E000E400E0FF
:103D000080E100E080FFFF1F10B50446BF488442F9
:103D100008D101218014FFF735FD0021A014FFF721
:103D200031FD16E0BA48844208D101210014FFF7A2
:103D300036FD00212014FFF732FD0AE0B548844229
:103D400007D10121C013FFF72AFD0021E013FFF77F
:103D500026FD10BD10B50022028802F441520B88E6
:103D60004C8823438C882343CC8823430C892343EA
:103D70004C8923438C892343CC8923431A430280F3
:103D8000838B4FF2FF74234083830B8A038210BD21
:103D90002DE9F04F85B005460C464FF0000902278B
:103DA0004FF000084FF0010B0026B246A88B4FF2EF
:103DB00040010840A88302202884B5F81C90A06820
:103DC000022801D100BF36E0A08810B94FF0010BE6
:103DD00001E04FF0020B8E48854200D100E000BFA9
:103DE0006846FFF748FCDDF800A0E088B0F5007FEA
:103DF0000AD14FEA1A2000EB80004000A168B0FB16
:103E0000F1F0401D86B20BE04FEA4B10BAFBF0F028
:103E100000EB80004000A168B0FBF1F0401D86B2CD
:103E20000A20B6FBF0F606F00108A6EB0800C0F386
:103E30004F074FEA0828022F01DBFF2F02DD022780
:103E40004FF00008E08840EA080038432884A08842
:103E5000A1890843618808432188084340F4006031
:103E600040EA0909A5F81C9005B0BDE8F08F0021D3
:103E7000018041808180C180018141818181C18136
:103E80000721018270470021018041808180C1802B
:103E90000221816000218181704721B1028842F0B6
:103EA0004002028004E002884FF6BF731A4002808D
:103EB000704721B1828B42F48062828304E0828B5E
:103EC0004FF6FF331A408283704770B500240023F9
:103ED0000C110125A540ABB21AB185881D43858020
:103EE00004E08588DE43B6B23540858070BD10B5EC
:103EF0001AB183880B43838004E08388CC43A4B247
:103F00002340838010BD81817047014688897047B6
:103F1000A1F57E42FF3A04D0028842F4807202800A
:103F200004E002884FF6FF631A400280704721B117
:103F3000828842F00402828004E082884FF6FB739C
:103F40001A408280704702884FF2FF731A40028045
:103F500002880A4302807047018841F48051018041
:103F6000704721B1028842F40052028004E00288C6
:103F70004DF6FF731A400280704702460020012967
:103F800001D0108B00E0908A70470146088A704784
:103F9000B1F5804F04D1028842F48042028004E0EF
:103FA00002884BF6FF731A400280704702460020D9
:103FB00013890B4201D0012000E000207047CA4362
:103FC00002817047F0B5024600200024002300253E
:103FD00001F00F070126BE40B4B20B1101269E402E
:103FE000B3B2968806EA03051689264202D00DB1BF
:103FF000012000E00020F0BD10B5002201F00F0408
:104000000123A3409AB2D343038110BD0030014085
:1040100000380040003C004010B50120FFF7CCFB09
:104020000020FFF7C9FB10BD2449086070472349F1
:10403000091F0860704721498431086070470146B4
:1040400000201F4A10884FF67F42104008431C4A48
:104050001080704701460020194A10884FF6807280
:1040600010400843164A108070470022144A2C3A28
:1040700002441160704701460022114A2C3A0A445A
:10408000108870470D489C300068C0B270470C48DB
:104090000830008840F00100094908310880704765
:1040A0000648A0300068C0B2704705480830008854
:1040B00040F00200024908310880704704860D4232
:1040C0002C6C004029B1524A12880243504B1A808E
:1040D00006E04F4A1288C3439BB21A404C4B1A80E9
:1040E00070474B48001D008840F010004849091DEA
:1040F000088070474648001D00884FF6EF71084061
:104100004349091D08807047002141481C3001883F
:10411000001F008841EA0040704700B50246FFF7E3
:10412000E0FF100C3A4918310880091D0A80FFF79A
:10413000E1FF00BD00B50246FFF7D3FFC2F3034025
:10414000334908310880091D0A80FFF7D3FF00BDFD
:1041500000B50246FFF7C5FF100C2D49203108803D
:10416000091D0A80FFF7C6FF00BD00202849103155
:1041700009880907080B2649143109880843704744
:1041800000BF2348001D008810F0200FF9D07047B1
:104190001F48001D00884FF6F77108401C49091D93
:1041A000088000BF1A48001D008810F0080FF9D0E1
:1041B000704701460020164A121D12880A4201D09B
:1041C000012000E0002070471149091D0988C24301
:1041D00092B211400E4A121D118070470146002014
:1041E0000B4A121D12880A40D0B2094A12880A42AC
:1041F00002D008B1012000E0002070470449091DE9
:104200000988C24392B21140014A121D11807047C1
:104210000028004010B501210807FFF7C0FA00216F
:104220004FF08050FFF7BBFA10BD29490862704774
:1042300027490861704701460020264A106820F08F
:10424000E00008431060704723490860704710B5CC
:10425000024600201F4B186820F00300104318602E
:104260001E4B1B6843F004031C4C2360012901D141
:1042700030BF00E020BF194B1B6823F00403174C2C
:10428000236010BD1348006840F004001149086025
:104290000846006840F0020008601048006840F0DE
:1042A00004000E49086000BF00BF30BF70470146E0
:1042B0000020084A52680A4201D0012000E0002094
:1042C00070470449096841EA8001024A1160704759
:1042D00000000E4200700040A0000E4210ED00E011
:1042E00001684FF6FE7211400160002101604160DB
:1042F0008160C1608C49884208D18B49083949687E
:1043000041F00F01884A083A51608AE08649143129
:10431000884208D184490839496841F0F001824A4D
:10432000083A51607DE080492831884208D17E49B1
:104330000839496841F470617B4A083A516070E07D
:1043400079493C31884208D177490839496841F4B4
:104350007041754A083A516063E0734950318842B0
:1043600008D171490839496841F470216E4A083A08
:10437000516056E06C496431884208D16A49083975
:10438000496841F47001684A083A516049E0664959
:104390007831884208D164490839496841F0706130
:1043A000614A083A51603CE06049884206D1011FE9
:1043B000096841F00F01021F116032E05B491431BE
:1043C000884208D15949091F096841F0F001574A4C
:1043D000121F116025E055492831884208D1534900
:1043E000091F096841F47061504A121F116018E0FA
:1043F0004E493C31884208D14C49091F096841F4B3
:1044000070414A4A121F11600BE0484950318842FE
:1044100007D14649091F096841F47021434A121F18
:104420001160704710B50022026847F6F0739A4396
:104430000C6A8B6823430C6923434C6923438C69C2
:104440002343CC6923434C6A23438C6A23431A4396
:104450000260CB6843600B6883604B68C36010BD2B
:104460000021016041608160C16001614161816141
:10447000C161016241628162704721B1026842F00C
:104480000102026004E002684FF6FE731A40026007
:1044900070471AB103680B43036002E003688B4363
:1044A00003607047416070470146486880B27047BA
:1044B00001460020002211F0805F03D01B4B083B17
:1044C0001A6802E0184B083B1A680A4201D0012022
:1044D00000E00020704710F0805F03D01349091FEF
:1044E000086002E010490839486070470146002022
:1044F000002211F0805F03D00C4B083B1A6802E0E9
:10450000094B083B1A680A4201D0012000E0002054
:10451000704710F0805F03D00449091F086002E073
:104520000149083948607047080002400804024009
:104530007CB5002514E06946284601F064FE064675
:1045400066B9F74850F8254044B1012C06D0D4E9AB
:10455000020100EB810060640198A064681CC5B290
:104560003F2DE8D97CBD002400BF02E0282001F0E7
:1045700057FFEC4800780028F8D0EB480068642129
:10458000B0FBF1F0E84908600846006828B900204F
:10459000E6490870FF2001F078FE00BF02F078F8CD
:1045A0000446E3480068E34908600020E0490860E9
:1045B000204602F071F8DF480068DB490968B0FB6B
:1045C000F1F0C0F16400D949087002F00EF8FFF76D
:1045D000AFFF142001F024FFE0E700B587B003200F
:1045E00000218022D44BCDE90132CDE903104FF6F2
:1045F000FE703E23D14A0090AFF2950001F014FC0A
:1046000006AACFA13E2001F07DFD07B000BD002429
:1046100000BF00BF02F03CF80446C5480068401CDB
:10462000C3490860204602F037F801F0DDFFF1E7EA
:1046300000B587B0032000218022C54BCDE90132AF
:10464000CDE903104FF6FF703F23C24A0090AFF24E
:10465000410001F0E9FB06AABFA13F2001F052FD95
:1046600007B000BD04E0002200F8012B4A1E91B201
:104670000029F8D1704770B5C821BB48FFF7F2FF99
:1046800000230FE0581C85B203EB8300B64901EB11
:10469000800405EB850001EB800600202070666039
:1046A000581C83B2092BEDD303EB8300AE4901EB19
:1046B00080040020207060600846AC49086070BD2E
:1046C00070B54FF47C71AA48FFF7CCFF4FF48071AE
:1046D0009348FFF7C7FF002413E0601CC5B2C4EB8A
:1046E000C40000EB4000A24901EB8003C5EBC5000C
:1046F00000EB400001EB80065E619EA0D864601C68
:10470000C4B20B2CE9D3C4EBC40000EB40009849C1
:1047100001EB80030020586196A0D86400209649E0
:10472000086093489549086070BD0021944A117053
:10473000002004E00021934A1154411CC8B208280B
:10474000F8D30021904A1170904A1170904A11607C
:10475000904A1160704700208F4908608F490870A7
:104760008F4908708F4908708F4908708F49086019
:104770006F4908606F4908606B49086069490870B3
:10478000704710B501F02CFFFFF7E5FFFFF7CDFFF5
:10479000FFF796FFFFF76FFF00F02AFF01F021FA05
:1047A000FFF746FFFFF719FF01F01BFF10BD7E4822
:1047B0000078012808D179480078FF2804D277488A
:1047C0000078401C75490870704779496C4A127826
:1047D000885C6C49095C764A515C01EBC0016B4A0C
:1047E0001170704710B500246F480078012830D14F
:1047F00001F04EFF04466948007820B16748007810
:10480000401E6649087065480078F8B96448007829
:10481000E0B9FFF7DAFF42485C49097850F8210017
:104820005B490860594800785749097888420DD09B
:1048300057480068806B401C5549096888635B488D
:104840000068401C5949086001F041FF204601F012
:1048500023FF10BD10B5002453480078012811D162
:1048600001F016FF04464D48007840B94C480078E6
:10487000FF2804D24A480078401C49490870204665
:1048800001F00AFF10BD10B5002401F001FF04463D
:1048900042480078F8B942480078E0B9FFF795FF40
:1048A0001F483A49097850F82100394908603748CB
:1048B00000783549097888420DD035480068806B0A
:1048C000401C33490968886338480068401C3749F0
:1048D000086001F0F5FE204601F0DEFE10BD10B5C7
:1048E00000243148007801286FD101F0D1FE044640
:1048F0002B48007880B12A480078401E284908706B
:104900000846007848B92548007838B9204601F0B3
:10491000C3FEFFF7B8FF58E054E04FE04AE0000064
:1049200064210020DC000020D4000020D000002002
:10493000EC000020D8000020641D0020601F002033
:1049400075432F4F532D4949205374617400000063
:10495000641F00206021002075432F4F532D4949CB
:104960002049646C650000004C1C0020C800002039
:10497000642200203F000000FC000020F400002022
:10498000E1000020E2000020DF000020E000002025
:10499000F8000020F000002008010020DD000020C9
:1049A000DE000020EB000020EA000020C400002010
:1049B000BAFE0008204601F06FFE06E0204601F036
:1049C0006BFE02E0204601F067FE10BD10B5F7480F
:1049D000007890B9FFF7F9FEF5480078F5490870BE
:1049E000F548F349097850F82100F4490860084671
:1049F0000068F349086001F052FE10BD10B50024B4
:104A0000022001F00DFD01F043FE04460020ED49B7
:104A10000860204601F040FE142001F001FD01F085
:104A200037FE0446E7480068E74908600120E74987
:104A30000870204601F030FE10BD70B5002601F070
:104A400024FE01F025FE0646E1480068401CE049CE
:104A50000860304601F020FED4480078012857D184
:104A6000DC48007820B1012804D0022809D103E0F5
:104A700001250BE0002509E001250120D54908703A
:104A800004E001250020D349087000BF00BF05B92C
:104A900070BDD148046837E001F0FAFD0646E06ACF
:104AA00070B3E06A401EE062E06A48BB94F83000F0
:104AB00010F0370F09D014F8300F00F0C800207044
:104AC00001206070A4F1300402E0002084F831007D
:104AD00094F8300010F0080F12D104F13404A078DB
:104AE000BE49097840EA0100BC4908702078BC49F9
:104AF000085C617840EA010014F83419B84A50544F
:104B00006469304601F0C8FD94F832003F28C3D1F3
:104B100000BFBDE740F223107047704710B590F812
:104B2000342001F10B039B5C90F83540E443E4B280
:104B3000234001F10B04A35423469B5C33B98B7AC9
:104B400090F83640E443E4B223408B7210BD2DE967
:104B5000F04F05460F4690469946A87AA1490E5C4B
:104B600005F10B00805D11F800B00BEBC60000F002
:104B7000FF0A914850F82A40002004F12004E06028
:104B80002760207C6FEA0801C9B200EA01002074A6
:104B900084F81190207CA4F1200410F0080F0DD1AE
:104BA00094F836008D49097808438C4908708C4880
:104BB000805D94F835100843894988552946204678
:104BC000FFF7ACFF5046BDE8F08F10B57C4A126885
:104BD000D0617B4A126892F8343000F10B02D25C4B
:104BE000774B1B6893F835301A43754B1B6893F865
:104BF000344000F10B031A55827A714B1B6893F80D
:104C000036301A4382726E4A126892F83410744A2F
:104C1000525C6B4B1B6893F83530DB43DBB21A40B8
:104C20006F4B5A541A46525C52B9654A126892F850
:104C30003620D243D2B2694B1B781A40674B1A70A8
:104C400010BD014600228A72002005E0002301F118
:104C50000B021354421CD0B20828F7D3704705E06A
:104C600011F8013B00F8013B531E9AB2002AF7D11C
:104C700070470146002002E0491C421CD0B20A786D
:104C8000002AF9D170472DE9F84F05460F469046A6
:104C90009946DDE90AAB0020009001F0F9FC009094
:104CA00051480468002C7CD004F1180454F8040C1A
:104CB0004D490860009801F0EFFC44F8187CA57697
:104CC000002020766076606144F814BC44F80CAC97
:104CD00044F8108C0C9824F8080C24F8069C00204A
:104CE000E077E810207705F00700E076217F0120CB
:104CF0008840A077E17E01208840607700206060D6
:104D0000E060A0602062A0626062E0622063AFF2B7
:104D10009C306063A4F118044FF0000606E0002107
:104D200004F1500040F82610701CC6B2002EF6D0D8
:104D3000204601F0A9FC204601F054FC01F0A8FC3B
:104D400000901D4840F8254023480068606100201D
:104D5000A0612148006810B11F48006884611E48A6
:104D6000046004F13404A0781C49097840EA010089
:104D70001A49087020781A49085C617840EA0100F5
:104D800014F83419164A50541848007800F10100FC
:104D900016490870009801F07FFC0020BDE8F88FEC
:104DA000FFE7009801F078FC4220F7E7EA000020D6
:104DB000E0000020DF00002064210020F800002037
:104DC000F0000020EC000020D4000020DC000020D7
:104DD0000801002000010020FC000020E10000206C
:104DE000E2000020BAFE0008F4000020EB000020E2
:104DF0002DE9F05F04460F4691461E464FF0000B2A
:104E00002078052804D0012030700020BDE8F09FF4
:104E100009F0800ABAF1000F04D029F080094FF0A0
:104E2000010801E04FF000080020307001F030FC74
:104E30008346B9F1000F30D0B9F1010F41D0B9F17B
:104E4000020F03D0B9F1030F4ED113E0208900EA1D
:104E50000705BD4208D1B8F1010F07D12089E94308
:104E600089B20840208101E070203070584601F07E
:104E700013FC40E0208900EA070545B1B8F1010FB5
:104E800007D12089E94389B20840208101E07020E0
:104E90003070584601F000FC2DE02089C04380B2FC
:104EA00000EA0705BD4206D1B8F1010F05D12089FE
:104EB0002843208101E070203070584601F0ECFB5F
:104EC00019E02089C04380B200EA070535B1B8F186
:104ED000010F05D120892843208101E07020307026
:104EE000584601F0D9FB06E0584601F0D5FB0025F5
:104EF0006F20307000BF00BF284687E72DE9F041E2
:104F000006460D460027F948007820B11020287089
:104F10000020BDE8F08101F0BBFB0746F4480468BF
:104F200084B100684068F24908600520207026813D
:104F300000206060EFA0E060384601F0ADFB00208B
:104F4000287004E0384601F0A7FB72202870204644
:104F5000DFE730B501464A6808682AB9CC68606066
:104F600028B10025456002E0106000B142608B6806
:104F700000255D6230BDF0B506460F46B4680020DE
:104F800004F1280460602780207A00F0DF0020729E
:104F90004FF000006072207AA4F12804A8B904F14F
:104FA0003404A078D449097840EA0100D249087055
:104FB0002078D249085C617840EA010014F834197D
:104FC000CE4A50544FF0010500E000253046FFF76F
:104FD000C0FF2846F0BD2DE9F04704468946154636
:104FE0004FF0000AC148007820B10F2028702046F9
:104FF000BDE8F0872078052803D0012028702046DE
:10500000F6E701F045FB8246606808B1012700E041
:105010000027B9F1000F03D0B9F1010F3CD119E01D
:105020008FB9B4A0E06000202070B14800686060D3
:1050300000202081AE480460504601F02DFB002086
:105040002870002605E0504601F026FB4920287014
:10505000264628E0D4F8048005E000214046FFF70A
:105060008AFFD8F80080B8F1000FF6D1A1A0E06067
:10507000002020709E4800686060002020819C48CD
:105080000460504601F008FB012F01D1FFF7FBFB44
:1050900000202870002606E0504601F0FDFA0720A7
:1050A0002870264600BF00BF3046A1E72DE9F04139
:1050B00005460E46144600278C48007820B1112082
:1050C00020700020BDE8F08101F0E2FA0746287860
:1050D000052806D0384601F0DFFA012020700020B4
:1050E000F0E7E86830603068FFF7C3FD8046384677
:1050F00001F0D2FA002020704046E3E72DE9F041AC
:1051000005460E46144600277848007818B112204C
:105110002070BDE8F08101F0BBFA07462878052829
:1051200005D0384601F0B8FA01202070F1E7EE60B2
:10513000384601F0B1FA0020207000BFE9E7F0B571
:105140001446059E6E4F3F6897F8307047F0200771
:10515000DFF8ACC1DCF800C08CF830700027DFF855
:10516000A0C1DCF800C08CF83170654F3F68FE626A
:10517000634F3F6879620C828B74614F3F688F6028
:1051800047680F6000274F60C860456805B16960D7
:1051900041605B4F3F6897F83420584FBF5CDFF8A1
:1051A00060C1DCF800C09CF835C06FEA0C0C0CF054
:1051B000FF0C07EA0C07DFF844C10CF802706746E1
:1051C000BF5C7FB94E4F3F6897F83670FF43FFB220
:1051D000DFF824C19CF800C007EA0C07DFF818C10B
:1051E0008CF80070F0BD2DE9F04F89B005460F46F0
:1051F00091469A46129E002002903C48007828B1C1
:1052000002203070002009B0BDE8F08F3D480078E2
:1052100018B10D2030700020F5E72878052803D05C
:10522000012030700020EEE709F0800BBBF1000F89
:1052300004D009F07F094FF0010801E04FF00008A9
:1052400001F026FA0290B9F1000F5DD0B9F1010F1B
:105250007FD0B9F1020F03D0B9F1030F6CD122E076
:10526000288900EA0704BC4211D1B8F1010F04D12A
:105270002889E14389B208402881214800680485D3
:10528000029801F009FA002030702046BBE74B4637
:105290003A4604A92846CDF800A0FFF750FF02982F
:1052A00001F0FAF97FE0288900EA07048CB1B8F12F
:1052B000010F04D12889E14389B2084028811048B0
:1052C00000680485029801F0E7F90020307020465C
:1052D00099E74B463A4604A92846CDF800A0FFF7C7
:1052E0002EFF029801F0D8F95DE00000DD000020FB
:1052F000CC0000203F000000E1000020E200002080
:10530000F0000020DE0000202889C04380B200EABF
:105310000704BC4211D1B8F1010F02D12889204302
:105320002881C74800680485029801F0B5F900207B
:105330003070204667E70CE02DE04B463A4604A962
:105340002846CDF800A0FFF7FAFE029801F0A4F974
:1053500029E02889C04380B200EA07047CB1B8F193
:10536000010F02D1288920432881B54800680485AF
:10537000029801F091F900203070204643E74B4637
:105380003A4604A92846CDF800A0FFF7D8FE0298B7
:1053900001F082F907E0029801F07EF900246F2005
:1053A000307020462FE700BFFFF76DFA01F070F96B
:1053B0000290A348006890F8310020B3A04800682C
:1053C00090F83100039000209D49096881F8310070
:1053D00004A8FFF7BEFD00209949096881F8300054
:1053E000029801F059F900240398012805D00228F9
:1053F00002D10E20307003E000BF0A20307000BFE1
:1054000000BF2046FFE68E480068048DB8F1010F0A
:1054100020D1B9F1000F10D0B9F1010F0ED0B9F1C0
:10542000020F03D0B9F1030F0CD100E000BF2889AF
:10543000E14389B2084028810BE000BF288920435E
:10544000288106E0029801F027F96F2030700020D3
:10545000D9E600BF029801F01FF900203070204605
:10546000D1E670B5002501F013F9054674480068CF
:10547000048D284601F010F9204670BD2DE9FC5F2F
:105480000446894692461E46002000902078052852
:1054900004D0012030700020BDE8FC9F01F0F8F836
:1054A0000090BAF1000F03D0BAF1010F0CD106E061
:1054B00020896FEA090189B2084020810BE0208928
:1054C00040EA0900208106E0009801F0E5F871202B
:1054D00030700020E0E700BF4FF0000B656859E036
:1054E000A87C40B301283AD0022802D0032848D132
:1054F00011E02089298A00EA0107288AB84209D1E7
:1055000039462846FFF737FD8046B8F1010F01D133
:105510004FF0010B3CE02089298A00EA01074FB1D6
:1055200039462846FFF727FD8046B8F1010F01D123
:105530004FF0010B2CE02089C04380B2298A00EA99
:105540000107288AB84209D139462846FFF713FDDA
:105550008046B8F1010F01D14FF0010B18E020890E
:10556000C04380B2298A00EA01074FB13946284674
:10557000FFF701FD8046B8F1010F01D14FF0010B9B
:1055800006E0009801F088F86F203070002083E773
:1055900000BF2D68002DA3D1009801F07DF8BBF16C
:1055A000010F01D1FFF76FF901F072F80090208927
:1055B0000190009801F070F80020307001986BE7BE
:1055C0002DE9F04104460D4600272078052804D037
:1055D000012028700020BDE8F08101F059F807464D
:1055E0002689384601F058F8002028703046F2E746
:1055F0002DE9F04150211348FFF734F800250EE063
:10560000681C86B20F4800EB051400EB061700205B
:1056100020706760AFF22430E060681C85B2042D12
:10562000EED3084800EB0514002020706060AFF254
:105630003C30E060034804490860BDE8F0810000A8
:10564000F0000020141D0020CC0000202DE9F041C6
:1056500006460D464FF000083078022804D001209D
:1056600028700020BDE8F08101F012F880467468CF
:10567000E08A78B12169081D20610F68E08A401E28
:10568000E082A1682069884201D160682061002021
:10569000287002E01F2028700027404600F0FCFF21
:1056A0003846DFE72DE9F04106460F464FF0000887
:1056B000F748007810B10020BDE8F08100F0E8FF65
:1056C0008046F4480568006820B1F24800684068E8
:1056D000F0490860404600F0DFFF3DB300F0D8FF1E
:1056E0008046ED480468C4B100680068EA49086073
:1056F000404600F0D1FF666006EB8700A060E660E0
:105700002661A7820020E0820220287000202881E4
:105710006C602846FFF795FA08E0DE48006868608C
:10572000DC480560404600F0B7FF00252846C3E787
:105730002DE9F0470446894615464FF0000A2078C7
:10574000022804D0012028702046BDE8F087D04808
:10575000007818B10F2028702046F6E700F098FF77
:105760008246A07A10B14FF0010801E04FF0000826
:10577000B9F1000F03D0B9F1010F45D11FE0B8F125
:10578000000F15D16668C44800683060C2480660E2
:1057900000202070BF480068606000202081BD4864
:1057A0000460504600F078FF00202870002705E0D4
:1057B000504600F071FF4920287027462BE005E095
:1057C0000023042219462046FFF7C1F9A07A0028D9
:1057D000F6D16668B04800683060AF4806600020C7
:1057E0002070AC480068606000202081A9480460F7
:1057F000504600F051FFB8F1010F01D1FFF743F817
:1058000000202870002706E0504600F045FF0720E2
:105810002870274600BF00BF384696E770B505469A
:10582000002600F035FF06466C686068E06060683E
:1058300020610020E082304600F02EFF002070BD85
:105840002DE9F0470746884615464FF0000938789D
:10585000022804D0012028700020BDE8F0878C4881
:10586000007818B1022028700020F6E78B480078F5
:1058700018B10D2028700020EFE700F009FF8146E5
:105880007C68E08A98B12169081D20610E68E08A71
:10589000401EE082A1682069884201D160682061D1
:1058A000484600F0F9FE002028703046D5E77C48D5
:1058B000006890F8300040F004007949096881F8E8
:1058C000300000207649096881F83100744800688A
:1058D000C0F82C803846FFF778F9484600F0DCFE27
:1058E000FEF7D1FF00F0D4FE81466D48006890F8C5
:1058F000310020B101280DD002280AD105E0684806
:105900000068066A002028700DE000260E2028702E
:1059100009E000BF394662480068FFF7FFF800263B
:105920000A20287000BF00BF00205D49096881F887
:1059300030005B49096881F8310059490968C8613C
:10594000574909680862484600F0A6FE304684E7D9
:105950002DE9F04104460F4615464FF00008207827
:10596000022804D0012028700020BDE8F08100F05A
:105970008FFE8046A07A20B300267FB1012F0CD184
:1059800007E00223042200212046FFF7E0F8701C04
:10599000C6B2A07A0028F4D109E000BF0223042295
:1059A00000212046FFF7D3F8701CC6B200BF00BF2D
:1059B000404600F071FEFEF766FF0E20287030466C
:1059C000D3E7404600F068FE0020287000BFCCE717
:1059D0002DE9F04105460E4600272878022802D01E
:1059E0000120BDE8F08100F053FE0746A87A60B1BF
:1059F0000023042231462846FFF7A9F8384600F074
:105A00004BFEFEF740FF0020EBE76C68E08AA18ABE
:105A1000884204DB384600F03FFE1E20E1E7E168E3
:105A2000081DE0600E60E08A401CE082D4E90210AC
:105A3000884201D16068E060384600F02DFE002009
:105A4000CFE72DE9F04105460E46002728780228C9
:105A500002D00120BDE8F08100F01AFE0746A87AC6
:105A600060B10023042231462846FFF770F838461B
:105A700000F012FEFEF707FF0020EBE76C68E08AFB
:105A8000A18A88420EDB384600F006FE1E20E1E7C0
:105A9000DD000020C800002004010020DE000020FE
:105AA000F000002061682069884201D1A06820616F
:105AB0002069001F206120690660E08A401CE082A6
:105AC000384600F0E9FD0020C4E72DE9F041054625
:105AD0000F4616464FF000082878022802D0012011
